{
  "contractName": "RetailerFinance",
  "abi": [
    {
      "constant": true,
      "inputs": [],
      "name": "Distributor",
      "outputs": [
        {
          "name": "",
          "type": "address"
        }
      ],
      "payable": false,
      "stateMutability": "view",
      "type": "function"
    },
    {
      "constant": true,
      "inputs": [],
      "name": "Bank",
      "outputs": [
        {
          "name": "",
          "type": "address"
        }
      ],
      "payable": false,
      "stateMutability": "view",
      "type": "function"
    },
    {
      "constant": true,
      "inputs": [],
      "name": "Retailer",
      "outputs": [
        {
          "name": "",
          "type": "address"
        }
      ],
      "payable": false,
      "stateMutability": "view",
      "type": "function"
    },
    {
      "constant": true,
      "inputs": [
        {
          "name": "",
          "type": "uint256"
        }
      ],
      "name": "orders",
      "outputs": [
        {
          "name": "id",
          "type": "uint256"
        },
        {
          "name": "itemname",
          "type": "string"
        },
        {
          "name": "quantity",
          "type": "uint256"
        },
        {
          "name": "price",
          "type": "uint256"
        },
        {
          "name": "total",
          "type": "uint256"
        },
        {
          "name": "State",
          "type": "uint8"
        }
      ],
      "payable": false,
      "stateMutability": "view",
      "type": "function"
    },
    {
      "constant": true,
      "inputs": [],
      "name": "Manufacturer",
      "outputs": [
        {
          "name": "",
          "type": "address"
        }
      ],
      "payable": false,
      "stateMutability": "view",
      "type": "function"
    },
    {
      "constant": true,
      "inputs": [],
      "name": "State",
      "outputs": [
        {
          "name": "",
          "type": "uint8"
        }
      ],
      "payable": false,
      "stateMutability": "view",
      "type": "function"
    },
    {
      "inputs": [
        {
          "name": "pManufacturer",
          "type": "address"
        },
        {
          "name": "pRetailer",
          "type": "address"
        },
        {
          "name": "pBank",
          "type": "address"
        },
        {
          "name": "pDistributor",
          "type": "address"
        }
      ],
      "payable": false,
      "stateMutability": "nonpayable",
      "type": "constructor"
    },
    {
      "anonymous": false,
      "inputs": [
        {
          "indexed": false,
          "name": "",
          "type": "uint256"
        },
        {
          "components": [
            {
              "name": "id",
              "type": "uint256"
            },
            {
              "name": "itemname",
              "type": "string"
            },
            {
              "name": "quantity",
              "type": "uint256"
            },
            {
              "name": "price",
              "type": "uint256"
            },
            {
              "name": "total",
              "type": "uint256"
            },
            {
              "name": "State",
              "type": "uint8"
            }
          ],
          "indexed": false,
          "name": "",
          "type": "tuple"
        }
      ],
      "name": "OrderList",
      "type": "event"
    },
    {
      "anonymous": false,
      "inputs": [
        {
          "components": [
            {
              "name": "id",
              "type": "uint256"
            },
            {
              "name": "itemname",
              "type": "string"
            },
            {
              "name": "quantity",
              "type": "uint256"
            },
            {
              "name": "price",
              "type": "uint256"
            },
            {
              "name": "total",
              "type": "uint256"
            },
            {
              "name": "State",
              "type": "uint8"
            }
          ],
          "indexed": false,
          "name": "",
          "type": "tuple[]"
        }
      ],
      "name": "OrderListA",
      "type": "event"
    },
    {
      "constant": false,
      "inputs": [
        {
          "name": "itemstr",
          "type": "string"
        },
        {
          "name": "quantity",
          "type": "uint256"
        }
      ],
      "name": "CreateOrder",
      "outputs": [],
      "payable": false,
      "stateMutability": "nonpayable",
      "type": "function"
    },
    {
      "constant": false,
      "inputs": [
        {
          "name": "orderid",
          "type": "uint256"
        }
      ],
      "name": "Terminate",
      "outputs": [],
      "payable": false,
      "stateMutability": "nonpayable",
      "type": "function"
    },
    {
      "constant": false,
      "inputs": [
        {
          "name": "orderid",
          "type": "uint256"
        },
        {
          "name": "uprice",
          "type": "uint256"
        },
        {
          "name": "discount",
          "type": "uint256"
        }
      ],
      "name": "Calculate",
      "outputs": [],
      "payable": false,
      "stateMutability": "nonpayable",
      "type": "function"
    },
    {
      "constant": false,
      "inputs": [
        {
          "name": "orderid",
          "type": "uint256"
        }
      ],
      "name": "CheckCredit",
      "outputs": [],
      "payable": false,
      "stateMutability": "nonpayable",
      "type": "function"
    },
    {
      "constant": false,
      "inputs": [
        {
          "name": "orderid",
          "type": "uint256"
        },
        {
          "name": "creditlimit",
          "type": "uint256"
        }
      ],
      "name": "ApproveCredit",
      "outputs": [],
      "payable": false,
      "stateMutability": "nonpayable",
      "type": "function"
    },
    {
      "constant": false,
      "inputs": [
        {
          "name": "orderid",
          "type": "uint256"
        }
      ],
      "name": "PlaceOrder",
      "outputs": [],
      "payable": false,
      "stateMutability": "nonpayable",
      "type": "function"
    },
    {
      "constant": false,
      "inputs": [
        {
          "name": "orderid",
          "type": "uint256"
        }
      ],
      "name": "OrderReady",
      "outputs": [],
      "payable": false,
      "stateMutability": "nonpayable",
      "type": "function"
    },
    {
      "constant": false,
      "inputs": [
        {
          "name": "orderid",
          "type": "uint256"
        }
      ],
      "name": "TransferMoney",
      "outputs": [],
      "payable": false,
      "stateMutability": "nonpayable",
      "type": "function"
    },
    {
      "constant": false,
      "inputs": [
        {
          "name": "orderid",
          "type": "uint256"
        }
      ],
      "name": "DeliverOrder",
      "outputs": [],
      "payable": false,
      "stateMutability": "nonpayable",
      "type": "function"
    },
    {
      "constant": false,
      "inputs": [
        {
          "name": "orderid",
          "type": "uint256"
        }
      ],
      "name": "CheckOrder",
      "outputs": [],
      "payable": false,
      "stateMutability": "nonpayable",
      "type": "function"
    },
    {
      "constant": false,
      "inputs": [
        {
          "name": "orderid",
          "type": "uint256"
        }
      ],
      "name": "CloseOrder",
      "outputs": [],
      "payable": false,
      "stateMutability": "nonpayable",
      "type": "function"
    },
    {
      "constant": false,
      "inputs": [],
      "name": "getAllOrders",
      "outputs": [],
      "payable": false,
      "stateMutability": "nonpayable",
      "type": "function"
    },
    {
      "constant": true,
      "inputs": [],
      "name": "getPeople",
      "outputs": [
        {
          "components": [
            {
              "name": "id",
              "type": "uint256"
            },
            {
              "name": "itemname",
              "type": "string"
            },
            {
              "name": "quantity",
              "type": "uint256"
            },
            {
              "name": "price",
              "type": "uint256"
            },
            {
              "name": "total",
              "type": "uint256"
            },
            {
              "name": "State",
              "type": "uint8"
            }
          ],
          "name": "",
          "type": "tuple[]"
        }
      ],
      "payable": false,
      "stateMutability": "view",
      "type": "function"
    },
    {
      "constant": false,
      "inputs": [],
      "name": "getOrd",
      "outputs": [],
      "payable": false,
      "stateMutability": "nonpayable",
      "type": "function"
    }
  ],
  "bytecode": "0x608060405260006004553480156200001657600080fd5b506040516080806200226683398101806040526200003891908101906200015b565b836000806101000a81548173ffffffffffffffffffffffffffffffffffffffff021916908373ffffffffffffffffffffffffffffffffffffffff16021790555082600160006101000a81548173ffffffffffffffffffffffffffffffffffffffff021916908373ffffffffffffffffffffffffffffffffffffffff16021790555081600260006101000a81548173ffffffffffffffffffffffffffffffffffffffff021916908373ffffffffffffffffffffffffffffffffffffffff16021790555080600360006101000a81548173ffffffffffffffffffffffffffffffffffffffff021916908373ffffffffffffffffffffffffffffffffffffffff16021790555050505050620001fb565b6000620001538251620001e7565b905092915050565b600080600080608085870312156200017257600080fd5b6000620001828782880162000145565b9450506020620001958782880162000145565b9350506040620001a88782880162000145565b9250506060620001bb8782880162000145565b91505092959194509250565b600073ffffffffffffffffffffffffffffffffffffffff82169050919050565b6000620001f482620001c7565b9050919050565b61205b806200020b6000396000f3fe608060405260043610610112576000357c0100000000000000000000000000000000000000000000000000000000900463ffffffff16806304245c65146101175780630c9b52e31461012e5780632039d8901461015757806335f12b5c146101825780634e41108d146101ab5780634f995d08146101d657806354fe04b5146102015780637bea0d1c1461022c57806391b9768714610243578063948989271461026c578063a85c38ef14610295578063ac6385aa146102d7578063aee4b4e414610300578063b27fd2771461032b578063c582c08514610354578063d594730b1461037d578063d6811751146103a6578063e5593906146103cf578063f1b6dccd146103f8578063fdad90c514610423575b600080fd5b34801561012357600080fd5b5061012c61044c565b005b34801561013a57600080fd5b50610155600480360361015091908101906118cc565b61061d565b005b34801561016357600080fd5b5061016c61075c565b6040516101799190611d48565b60405180910390f35b34801561018e57600080fd5b506101a960048036036101a491908101906118cc565b610782565b005b3480156101b757600080fd5b506101c06108c1565b6040516101cd9190611d48565b60405180910390f35b3480156101e257600080fd5b506101eb6108e7565b6040516101f89190611d63565b60405180910390f35b34801561020d57600080fd5b50610216610a87565b6040516102239190611d48565b60405180910390f35b34801561023857600080fd5b50610241610aad565b005b34801561024f57600080fd5b5061026a600480360361026591908101906118cc565b610b20565b005b34801561027857600080fd5b50610293600480360361028e91908101906118cc565b610c5e565b005b3480156102a157600080fd5b506102bc60048036036102b791908101906118cc565b610d9d565b6040516102ce96959493929190611e20565b60405180910390f35b3480156102e357600080fd5b506102fe60048036036102f99190810190611878565b610e7e565b005b34801561030c57600080fd5b50610315610f37565b6040516103229190611d48565b60405180910390f35b34801561033757600080fd5b50610352600480360361034d91908101906118cc565b610f5c565b005b34801561036057600080fd5b5061037b600480360361037691908101906118cc565b61109a565b005b34801561038957600080fd5b506103a4600480360361039f9190810190611931565b6111d8565b005b3480156103b257600080fd5b506103cd60048036036103c891908101906118cc565b61137a565b005b3480156103db57600080fd5b506103f660048036036103f191908101906118f5565b61144d565b005b34801561040457600080fd5b5061040d6115d5565b60405161041a9190611d85565b60405180910390f35b34801561042f57600080fd5b5061044a600480360361044591908101906118cc565b6115e8565b005b6000600454905060608160405190808252806020026020018201604052801561048f57816020015b61047c611727565b8152602001906001900390816104745790505b50905060008090505b828110156105e1576005600060018301815260200190815260200160002060c0604051908101604052908160008201548152602001600182018054600181600116156101000203166002900480601f0160208091040260200160405190810160405280929190818152602001828054600181600116156101000203166002900480156105655780601f1061053a57610100808354040283529160200191610565565b820191906000526020600020905b81548152906001019060200180831161054857829003601f168201915b505050505081526020016002820154815260200160038201548152602001600482015481526020016005820160009054906101000a900460ff16600a8111156105aa57fe5b600a8111156105b557fe5b8152505082828151811015156105c757fe5b906020019060200201819052508080600101915050610498565b507fc47f6b0ae412fe85da86dffcb1c1a9fa2d7092728771d6abd8fefdf78b290317816040516106119190611d63565b60405180910390a15050565b60006005600083815260200190815260200160002090503373ffffffffffffffffffffffffffffffffffffffff16600160009054906101000a900473ffffffffffffffffffffffffffffffffffffffff1673ffffffffffffffffffffffffffffffffffffffff161415156106c6576040517f08c379a00000000000000000000000000000000000000000000000000000000081526004016106bd90611de0565b60405180910390fd5b6007600a8111156106d357fe5b8160050160009054906101000a900460ff16600a8111156106f057fe5b141515610732576040517f08c379a000000000000000000000000000000000000000000000000000000000815260040161072990611de0565b60405180910390fd5b60088160050160006101000a81548160ff0219169083600a81111561075357fe5b02179055505050565b600360009054906101000a900473ffffffffffffffffffffffffffffffffffffffff1681565b60006005600083815260200190815260200160002090503373ffffffffffffffffffffffffffffffffffffffff16600360009054906101000a900473ffffffffffffffffffffffffffffffffffffffff1673ffffffffffffffffffffffffffffffffffffffff1614151561082b576040517f08c379a000000000000000000000000000000000000000000000000000000000815260040161082290611de0565b60405180910390fd5b6006600a81111561083857fe5b8160050160009054906101000a900460ff16600a81111561085557fe5b141515610897576040517f08c379a000000000000000000000000000000000000000000000000000000000815260040161088e90611de0565b60405180910390fd5b60078160050160006101000a81548160ff0219169083600a8111156108b857fe5b02179055505050565b600260009054906101000a900473ffffffffffffffffffffffffffffffffffffffff1681565b60606000600454905060608160405190808252806020026020018201604052801561092c57816020015b610919611727565b8152602001906001900390816109115790505b50905060008090505b82811015610a7e576005600060018301815260200190815260200160002060c0604051908101604052908160008201548152602001600182018054600181600116156101000203166002900480601f016020809104026020016040519081016040528092919081815260200182805460018160011615610100020316600290048015610a025780601f106109d757610100808354040283529160200191610a02565b820191906000526020600020905b8154815290600101906020018083116109e557829003601f168201915b505050505081526020016002820154815260200160038201548152602001600482015481526020016005820160009054906101000a900460ff16600a811115610a4757fe5b600a811115610a5257fe5b815250508282815181101515610a6457fe5b906020019060200201819052508080600101915050610935565b50809250505090565b600160009054906101000a900473ffffffffffffffffffffffffffffffffffffffff1681565b600060045490506000600190505b8181111515610b1c577f602ae857ce2ec42f64a1efe7ad4c12ef470f28e7b26e7e497d7ac52db982ef568160056000848152602001908152602001600020604051610b07929190611e88565b60405180910390a18080600101915050610abb565b5050565b60006005600083815260200190815260200160002090503373ffffffffffffffffffffffffffffffffffffffff166000809054906101000a900473ffffffffffffffffffffffffffffffffffffffff1673ffffffffffffffffffffffffffffffffffffffff16141515610bc8576040517f08c379a0000000000000000000000000000000000000000000000000000000008152600401610bbf90611de0565b60405180910390fd5b6008600a811115610bd557fe5b8160050160009054906101000a900460ff16600a811115610bf257fe5b141515610c34576040517f08c379a0000000000000000000000000000000000000000000000000000000008152600401610c2b90611de0565b60405180910390fd5b60098160050160006101000a81548160ff0219169083600a811115610c5557fe5b02179055505050565b60006005600083815260200190815260200160002090506005600a811115610c8257fe5b8160050160009054906101000a900460ff16600a811115610c9f57fe5b141515610ce1576040517f08c379a0000000000000000000000000000000000000000000000000000000008152600401610cd890611de0565b60405180910390fd5b3373ffffffffffffffffffffffffffffffffffffffff16600260009054906101000a900473ffffffffffffffffffffffffffffffffffffffff1673ffffffffffffffffffffffffffffffffffffffff16141515610d73576040517f08c379a0000000000000000000000000000000000000000000000000000000008152600401610d6a90611de0565b60405180910390fd5b60068160050160006101000a81548160ff0219169083600a811115610d9457fe5b02179055505050565b6005602052806000526040600020600091509050806000015490806001018054600181600116156101000203166002900480601f016020809104026020016040519081016040528092919081815260200182805460018160011615610100020316600290048015610e4f5780601f10610e2457610100808354040283529160200191610e4f565b820191906000526020600020905b815481529060010190602001808311610e3257829003601f168201915b5050505050908060020154908060030154908060040154908060050160009054906101000a900460ff16905086565b60046000815480929190600101919050555060045460056000600454815260200190815260200160002060000181905550600060056000600454815260200190815260200160002060050160006101000a81548160ff0219169083600a811115610ee457fe5b0217905550816005600060045481526020019081526020016000206001019080519060200190610f15929190611769565b5080600560006004548152602001908152602001600020600201819055505050565b6000809054906101000a900473ffffffffffffffffffffffffffffffffffffffff1681565b60006005600083815260200190815260200160002090506004600a811115610f8057fe5b8160050160009054906101000a900460ff16600a811115610f9d57fe5b141515610fdf576040517f08c379a0000000000000000000000000000000000000000000000000000000008152600401610fd690611de0565b60405180910390fd5b3373ffffffffffffffffffffffffffffffffffffffff166000809054906101000a900473ffffffffffffffffffffffffffffffffffffffff1673ffffffffffffffffffffffffffffffffffffffff16141515611070576040517f08c379a000000000000000000000000000000000000000000000000000000000815260040161106790611de0565b60405180910390fd5b60058160050160006101000a81548160ff0219169083600a81111561109157fe5b02179055505050565b60006005600083815260200190815260200160002090506001600a8111156110be57fe5b8160050160009054906101000a900460ff16600a8111156110db57fe5b14151561111d576040517f08c379a000000000000000000000000000000000000000000000000000000000815260040161111490611de0565b60405180910390fd5b3373ffffffffffffffffffffffffffffffffffffffff16600360009054906101000a900473ffffffffffffffffffffffffffffffffffffffff1673ffffffffffffffffffffffffffffffffffffffff1614156111ae576040517f08c379a00000000000000000000000000000000000000000000000000000000081526004016111a590611de0565b60405180910390fd5b60028160050160006101000a81548160ff0219169083600a8111156111cf57fe5b02179055505050565b60006005600085815260200190815260200160002090506000600a8111156111fc57fe5b8160050160009054906101000a900460ff16600a81111561121957fe5b14151561125b576040517f08c379a000000000000000000000000000000000000000000000000000000000815260040161125290611dc0565b60405180910390fd5b3373ffffffffffffffffffffffffffffffffffffffff16600360009054906101000a900473ffffffffffffffffffffffffffffffffffffffff1673ffffffffffffffffffffffffffffffffffffffff161415156112ed576040517f08c379a00000000000000000000000000000000000000000000000000000000081526004016112e490611da0565b60405180910390fd5b6064828115156112f957fe5b046001038382600201540202816003018190555033600360006101000a81548173ffffffffffffffffffffffffffffffffffffffff021916908373ffffffffffffffffffffffffffffffffffffffff16021790555060018160050160006101000a81548160ff0219169083600a81111561136f57fe5b021790555050505050565b60006005600083815260200190815260200160002090503373ffffffffffffffffffffffffffffffffffffffff16600160009054906101000a900473ffffffffffffffffffffffffffffffffffffffff1673ffffffffffffffffffffffffffffffffffffffff16141515611423576040517f08c379a000000000000000000000000000000000000000000000000000000000815260040161141a90611de0565b60405180910390fd5b600a8160050160006101000a81548160ff0219169083600a81111561144457fe5b02179055505050565b60006005600084815260200190815260200160002090506002600a81111561147157fe5b8160050160009054906101000a900460ff16600a81111561148e57fe5b1415156114d0576040517f08c379a00000000000000000000000000000000000000000000000000000000081526004016114c790611de0565b60405180910390fd5b3373ffffffffffffffffffffffffffffffffffffffff16600260009054906101000a900473ffffffffffffffffffffffffffffffffffffffff1673ffffffffffffffffffffffffffffffffffffffff16141515611562576040517f08c379a000000000000000000000000000000000000000000000000000000000815260040161155990611de0565b60405180910390fd5b8181600301541015156115aa576040517f08c379a00000000000000000000000000000000000000000000000000000000081526004016115a190611e00565b60405180910390fd5b60038160050160006101000a81548160ff0219169083600a8111156115cb57fe5b0217905550505050565b600360149054906101000a900460ff1681565b6000600560008381526020019081526020016000209050600360009054906101000a900473ffffffffffffffffffffffffffffffffffffffff1673ffffffffffffffffffffffffffffffffffffffff163373ffffffffffffffffffffffffffffffffffffffff16141515611691576040517f08c379a000000000000000000000000000000000000000000000000000000000815260040161168890611de0565b60405180910390fd5b6003600a81111561169e57fe5b8160050160009054906101000a900460ff16600a8111156116bb57fe5b1415156116fd576040517f08c379a00000000000000000000000000000000000000000000000000000000081526004016116f490611de0565b60405180910390fd5b60048160050160006101000a81548160ff0219169083600a81111561171e57fe5b02179055505050565b60c06040519081016040528060008152602001606081526020016000815260200160008152602001600081526020016000600a81111561176357fe5b81525090565b828054600181600116156101000203166002900490600052602060002090601f016020900481019282601f106117aa57805160ff19168380011785556117d8565b828001600101855582156117d8579182015b828111156117d75782518255916020019190600101906117bc565b5b5090506117e591906117e9565b5090565b61180b91905b808211156118075760008160009055506001016117ef565b5090565b90565b600082601f830112151561182157600080fd5b813561183461182f82611ee5565b611eb8565b9150808252602083016020830185838301111561185057600080fd5b61185b838284611fc1565b50505092915050565b60006118708235611fa5565b905092915050565b6000806040838503121561188b57600080fd5b600083013567ffffffffffffffff8111156118a557600080fd5b6118b18582860161180e565b92505060206118c285828601611864565b9150509250929050565b6000602082840312156118de57600080fd5b60006118ec84828501611864565b91505092915050565b6000806040838503121561190857600080fd5b600061191685828601611864565b925050602061192785828601611864565b9150509250929050565b60008060006060848603121561194657600080fd5b600061195486828701611864565b935050602061196586828701611864565b925050604061197686828701611864565b9150509250925092565b61198981611f53565b82525050565b600061199a82611f30565b808452602084019350836020820285016119b385611f11565b60005b848110156119ec5783830388526119ce838351611bef565b92506119d982611f46565b91506020880197506001810190506119b6565b508196508694505050505092915050565b611a0681611faf565b82525050565b6000611a1782611f3b565b808452611a2b816020860160208601611fd0565b611a3481612003565b602085010191505092915050565b600081546001811660008114611a5f5760018114611a7f57611ac0565b607f600283041680865260ff198316602087015260408601935050611ac0565b60028204808652602086019550611a9585611f1e565b60005b82811015611ab757815481890152600182019150602081019050611a98565b80880195505050505b505092915050565b6000602782527f4f6e6c79206469737472696275746f722063616e2063616c63756c617465206460208301527f6973636f756e74000000000000000000000000000000000000000000000000006040830152606082019050919050565b6000603382527f5468652073746174652063616e2062652063616c6c6564206f6e6c792077686560208301527f6e20697473206f726465722063726561746564000000000000000000000000006040830152606082019050919050565b6000808252602082019050919050565b6000603782527f43616e6e6f74206f7264657220617320646f6573206e6f74206861766520746860208301527f6520726571756972656420637265646974206c696d69740000000000000000006040830152606082019050919050565b600060c083016000830151611c076000860182611d39565b5060208301518482036020860152611c1f8282611a0c565b9150506040830151611c346040860182611d39565b506060830151611c476060860182611d39565b506080830151611c5a6080860182611d39565b5060a0830151611c6d60a08601826119fd565b508091505092915050565b600060c083016000808401549050611c8f81612014565b611c9c6000870182611d39565b50600184018583036020870152611cb38382611a42565b92505060028401549050611cc681612014565b611cd36040870182611d39565b5060038401549050611ce481612014565b611cf16060870182611d39565b5060048401549050611d0281612014565b611d0f6080870182611d39565b5060058401549050611d2081612014565b611d2d60a08701826119fd565b50819250505092915050565b611d4281611f9b565b82525050565b6000602082019050611d5d6000830184611980565b92915050565b60006020820190508181036000830152611d7d818461198f565b905092915050565b6000602082019050611d9a60008301846119fd565b92915050565b60006020820190508181036000830152611db981611ac8565b9050919050565b60006020820190508181036000830152611dd981611b25565b9050919050565b60006020820190508181036000830152611df981611b82565b9050919050565b60006020820190508181036000830152611e1981611b92565b9050919050565b600060c082019050611e356000830189611d39565b8181036020830152611e478188611a0c565b9050611e566040830187611d39565b611e636060830186611d39565b611e706080830185611d39565b611e7d60a08301846119fd565b979650505050505050565b6000604082019050611e9d6000830185611d39565b8181036020830152611eaf8184611c78565b90509392505050565b6000604051905081810181811067ffffffffffffffff82111715611edb57600080fd5b8060405250919050565b600067ffffffffffffffff821115611efc57600080fd5b601f19601f8301169050602081019050919050565b6000602082019050919050565b60008160005260206000209050919050565b600081519050919050565b600081519050919050565b6000602082019050919050565b6000611f5e82611f7b565b9050919050565b6000600b82101515611f7357fe5b819050919050565b600073ffffffffffffffffffffffffffffffffffffffff82169050919050565b6000819050919050565b6000819050919050565b6000611fba82611f65565b9050919050565b82818337600083830152505050565b60005b83811015611fee578082015181840152602081019050611fd3565b83811115611ffd576000848401525b50505050565b6000601f19601f8301169050919050565b600060018204905091905056fea265627a7a723058208ad7c406cc417802856b025842f8849abc5e7fd50b30bfce83a749ed72ab63f96c6578706572696d656e74616cf50037",
  "source": "pragma solidity >=0.4.25 <0.6.0;\r\npragma experimental ABIEncoderV2;\r\n\r\ncontract RetailerFinance\r\n{\r\n    address public Manufacturer;\r\n    address public Retailer;\r\n    address public Bank;\r\n    address public Distributor;\r\n\r\n    enum StateType {OrderCreated, PendingCreditCheck, SendtoBank, CreditApproved, OrderPlaced, OrderPickListReady,\r\n                    OrderAmountReceived, OrderDelivered, OrderChecked, OrderClosed,Terminated }\r\n    struct Order {\r\n        uint id;\r\n        string itemname;\r\n        uint quantity;\r\n        uint256 price;\r\n        uint256 total;\r\n        StateType State;\r\n    }\r\n\r\n    event OrderList(uint, Order);\r\n    event OrderListA(Order[]);\r\n    \r\n    StateType public State;\r\n    uint numOrders = 0;\r\n    mapping (uint => Order) public orders;\r\n\r\n    constructor(address pManufacturer, address pRetailer, address pBank, address pDistributor) public {\r\n        Manufacturer = pManufacturer;\r\n        Retailer = pRetailer;\r\n        Bank = pBank;\r\n        Distributor = pDistributor;\r\n        return;\r\n    }\r\n\r\n    function CreateOrder(string memory itemstr, uint quantity) public\r\n    {\r\n        numOrders++;\r\n        //orderId = numOrders++;\r\n        orders[numOrders].id = numOrders;\r\n        orders[numOrders].State = StateType.OrderCreated;\r\n        // for(uint i = 0; i<_array.length; i++)\r\n        // {\r\n        //    orders[numOrders].items[i] = Item({name:_array[i].name,amount:_array[i].amount});\r\n        // }\r\n        orders[numOrders].itemname = itemstr;\r\n        orders[numOrders].quantity = quantity;\r\n        //orders[numOrders].Retailer = msg.sender;\r\n        //return orders[numOrders].id;\r\n     }\r\n\r\n    function Terminate(uint orderid) public {\r\n        Order storage o = orders[orderid];\r\n        if (Retailer != msg.sender)\r\n        {\r\n            revert('');\r\n        }\r\n        o.State = StateType.Terminated;\r\n    }\r\n\r\n    //Distributor calculates price for the order\r\n    // function Calculate(uint256 price1, uint256 price2, uint256 price3, uint256 discount) public\r\n    function Calculate(uint orderid, uint uprice, uint discount) public\r\n    {\r\n        Order storage o = orders[orderid];\r\n        if (o.State != StateType.OrderCreated)\r\n        {\r\n            revert('The state can be called only when its order created');\r\n        }\r\n        if (Distributor != msg.sender)\r\n        {\r\n           revert('Only distributor can calculate discount');\r\n\r\n        }\r\n        o.price = (o.quantity * uprice) * (1-(discount/100));\r\n        Distributor = msg.sender;\r\n        o.State = StateType.PendingCreditCheck;\r\n    }\r\n\r\n    function CheckCredit(uint orderid) public\r\n    {\r\n        Order storage o = orders[orderid];\r\n        if (o.State != StateType.PendingCreditCheck)\r\n        {\r\n            revert('');\r\n        }\r\n        if (Distributor == msg.sender)\r\n        {\r\n            revert('');\r\n        }\r\n        //need logic to check credit limit\r\n        o.State = StateType.SendtoBank;\r\n    }\r\n\r\n    function ApproveCredit(uint orderid, uint256 creditlimit) public\r\n    {\r\n        Order storage o = orders[orderid];\r\n       if (o.State != StateType.SendtoBank)\r\n        {\r\n            revert('');\r\n        }\r\n        if (Bank != msg.sender)\r\n        {\r\n            revert('');\r\n\r\n        }\r\n        if(o.price >= creditlimit)\r\n        {\r\n            revert('Cannot order as does not have the required credit limit');\r\n        }\r\n\r\n        o.State = StateType.CreditApproved;\r\n    }\r\n\r\n    function PlaceOrder(uint orderid) public\r\n    {\r\n        Order storage o = orders[orderid];\r\n        if (msg.sender != Distributor)\r\n        {\r\n            revert('');\r\n\r\n        }\r\n        if (o.State != StateType.CreditApproved )\r\n        {\r\n            revert('');\r\n        }\r\n        o.State = StateType.OrderPlaced;\r\n    }\r\n    function OrderReady(uint orderid) public\r\n    {\r\n        Order storage o = orders[orderid];\r\n        if (o.State != StateType.OrderPlaced)\r\n        {\r\n            revert('');\r\n        }\r\n        if (Manufacturer != msg.sender)\r\n        {\r\n            revert('');\r\n        }\r\n        o.State = StateType.OrderPickListReady;\r\n    }\r\n\r\n    function TransferMoney(uint orderid) public\r\n    {\r\n        Order storage o = orders[orderid];\r\n        if (o.State != StateType.OrderPickListReady)\r\n        {\r\n            revert('');\r\n        }\r\n        if (Bank != msg.sender)\r\n        {\r\n            revert('');\r\n        }\r\n        o.State = StateType.OrderAmountReceived;\r\n    }\r\n    function DeliverOrder(uint orderid) public\r\n    {\r\n        Order storage o = orders[orderid];\r\n        if (Distributor != msg.sender)\r\n        {\r\n            revert('');\r\n\r\n        }\r\n        if (o.State != StateType.OrderAmountReceived)\r\n        {\r\n            revert('');\r\n        }\r\n        o.State = StateType.OrderDelivered;\r\n    }\r\n    function CheckOrder(uint orderid) public\r\n    {\r\n        Order storage o = orders[orderid];\r\n        if (Retailer != msg.sender)\r\n        {\r\n            revert('');\r\n        }\r\n        if (o.State != StateType.OrderDelivered)\r\n        {\r\n            revert('');\r\n        }\r\n        o.State = StateType.OrderChecked;\r\n    }\r\n\r\n    function CloseOrder(uint orderid) public\r\n    {\r\n        Order storage o = orders[orderid];\r\n        if (Manufacturer != msg.sender)\r\n        {\r\n            revert('');\r\n        }\r\n        if (o.State != StateType.OrderChecked)\r\n        {\r\n            revert('');\r\n        }\r\n        o.State = StateType.OrderClosed;\r\n   }\r\n   \r\n   function getAllOrders () public \r\n   {\r\n        uint totalElem = numOrders;\r\n        for(uint i=1; i<=totalElem; i++)\r\n        {\r\n            emit OrderList(i, orders[i]);\r\n        }\r\n    }\r\n    \r\n    function getPeople() public view returns (Order[] memory)\r\n    {\r\n        uint totalOrders = numOrders;\r\n        Order[]    memory ord = new Order[](totalOrders);\r\n        for (uint i = 0; i < totalOrders; i++) {\r\n            ord[i] = orders[i+1];\r\n        }\r\n        return ord;\r\n    }\r\n    \r\n    function getOrd() public \r\n    {\r\n        uint totalOrders = numOrders;\r\n        Order[]    memory ord = new Order[](totalOrders);\r\n        for (uint i = 0; i < totalOrders; i++) {\r\n            ord[i] = orders[i+1];\r\n        }\r\n        emit OrderListA(ord); \r\n        \r\n    }\r\n}",
  "sourcePath": "c:/Users/sukute/source/repos/Web3JsPractice/code/contracts/RetailerFinance.sol",
  "compiler": {
    "name": "solc",
    "version": "0.5.0+commit.1d4f565a.Emscripten.clang"
  },
  "schemaVersion": "3.0.16",
  "updatedAt": "2019-11-08T04:13:06.900Z",
  "devdoc": {
    "methods": {}
  },
  "userdoc": {
    "methods": {}
  }
}